{
  "_format": "hh-sol-artifact-1",
  "contractName": "AccessManager",
  "sourceName": "contracts/modules/AccessManager.sol",
  "abi": [
    {
      "inputs": [
        {
          "internalType": "address",
          "name": "_storage",
          "type": "address"
        },
        {
          "internalType": "address",
          "name": "_proxy",
          "type": "address"
        }
      ],
      "stateMutability": "nonpayable",
      "type": "constructor"
    },
    {
      "inputs": [],
      "name": "AccessControlBadConfirmation",
      "type": "error"
    },
    {
      "inputs": [
        {
          "internalType": "address",
          "name": "account",
          "type": "address"
        },
        {
          "internalType": "bytes32",
          "name": "neededRole",
          "type": "bytes32"
        }
      ],
      "name": "AccessControlUnauthorizedAccount",
      "type": "error"
    },
    {
      "anonymous": false,
      "inputs": [
        {
          "indexed": true,
          "internalType": "address",
          "name": "commerce",
          "type": "address"
        },
        {
          "indexed": false,
          "internalType": "uint256",
          "name": "feePercent",
          "type": "uint256"
        }
      ],
      "name": "CommerceFeeUpdated",
      "type": "event"
    },
    {
      "anonymous": false,
      "inputs": [
        {
          "indexed": true,
          "internalType": "address",
          "name": "commerce",
          "type": "address"
        },
        {
          "indexed": false,
          "internalType": "bool",
          "name": "whitelisted",
          "type": "bool"
        }
      ],
      "name": "CommerceWhitelisted",
      "type": "event"
    },
    {
      "anonymous": false,
      "inputs": [
        {
          "indexed": false,
          "internalType": "uint256",
          "name": "feePercent",
          "type": "uint256"
        }
      ],
      "name": "DefaultFeePercentUpdated",
      "type": "event"
    },
    {
      "anonymous": false,
      "inputs": [
        {
          "indexed": false,
          "internalType": "string",
          "name": "action",
          "type": "string"
        },
        {
          "indexed": true,
          "internalType": "address",
          "name": "executor",
          "type": "address"
        }
      ],
      "name": "EmergencyAction",
      "type": "event"
    },
    {
      "anonymous": false,
      "inputs": [
        {
          "indexed": true,
          "internalType": "bytes32",
          "name": "role",
          "type": "bytes32"
        },
        {
          "indexed": true,
          "internalType": "bytes32",
          "name": "previousAdminRole",
          "type": "bytes32"
        },
        {
          "indexed": true,
          "internalType": "bytes32",
          "name": "newAdminRole",
          "type": "bytes32"
        }
      ],
      "name": "RoleAdminChanged",
      "type": "event"
    },
    {
      "anonymous": false,
      "inputs": [
        {
          "indexed": true,
          "internalType": "bytes32",
          "name": "role",
          "type": "bytes32"
        },
        {
          "indexed": true,
          "internalType": "address",
          "name": "account",
          "type": "address"
        },
        {
          "indexed": true,
          "internalType": "address",
          "name": "sender",
          "type": "address"
        }
      ],
      "name": "RoleGranted",
      "type": "event"
    },
    {
      "anonymous": false,
      "inputs": [
        {
          "indexed": true,
          "internalType": "bytes32",
          "name": "role",
          "type": "bytes32"
        },
        {
          "indexed": true,
          "internalType": "address",
          "name": "account",
          "type": "address"
        },
        {
          "indexed": true,
          "internalType": "address",
          "name": "sender",
          "type": "address"
        }
      ],
      "name": "RoleRevoked",
      "type": "event"
    },
    {
      "anonymous": false,
      "inputs": [
        {
          "indexed": true,
          "internalType": "address",
          "name": "token",
          "type": "address"
        },
        {
          "indexed": false,
          "internalType": "bool",
          "name": "whitelisted",
          "type": "bool"
        }
      ],
      "name": "TokenWhitelisted",
      "type": "event"
    },
    {
      "inputs": [],
      "name": "BACKEND_OPERATOR_ROLE",
      "outputs": [
        {
          "internalType": "bytes32",
          "name": "",
          "type": "bytes32"
        }
      ],
      "stateMutability": "view",
      "type": "function"
    },
    {
      "inputs": [],
      "name": "DEFAULT_ADMIN_ROLE",
      "outputs": [
        {
          "internalType": "bytes32",
          "name": "",
          "type": "bytes32"
        }
      ],
      "stateMutability": "view",
      "type": "function"
    },
    {
      "inputs": [],
      "name": "ONBOARDING_ROLE",
      "outputs": [
        {
          "internalType": "bytes32",
          "name": "",
          "type": "bytes32"
        }
      ],
      "stateMutability": "view",
      "type": "function"
    },
    {
      "inputs": [],
      "name": "TOKEN_MANAGER_ROLE",
      "outputs": [
        {
          "internalType": "bytes32",
          "name": "",
          "type": "bytes32"
        }
      ],
      "stateMutability": "view",
      "type": "function"
    },
    {
      "inputs": [],
      "name": "TREASURY_MANAGER_ROLE",
      "outputs": [
        {
          "internalType": "bytes32",
          "name": "",
          "type": "bytes32"
        }
      ],
      "stateMutability": "view",
      "type": "function"
    },
    {
      "inputs": [
        {
          "internalType": "address",
          "name": "commerce",
          "type": "address"
        }
      ],
      "name": "addCommerceToWhitelist",
      "outputs": [],
      "stateMutability": "nonpayable",
      "type": "function"
    },
    {
      "inputs": [
        {
          "internalType": "address",
          "name": "commerce",
          "type": "address"
        },
        {
          "internalType": "address[]",
          "name": "tokens",
          "type": "address[]"
        }
      ],
      "name": "addTokenToCommerceWhitelist",
      "outputs": [],
      "stateMutability": "nonpayable",
      "type": "function"
    },
    {
      "inputs": [
        {
          "internalType": "address",
          "name": "token",
          "type": "address"
        }
      ],
      "name": "addTokenToWhitelist",
      "outputs": [],
      "stateMutability": "nonpayable",
      "type": "function"
    },
    {
      "inputs": [],
      "name": "emergencyPause",
      "outputs": [],
      "stateMutability": "nonpayable",
      "type": "function"
    },
    {
      "inputs": [],
      "name": "getBackendOperatorRole",
      "outputs": [
        {
          "internalType": "bytes32",
          "name": "",
          "type": "bytes32"
        }
      ],
      "stateMutability": "pure",
      "type": "function"
    },
    {
      "inputs": [
        {
          "internalType": "address",
          "name": "commerce",
          "type": "address"
        }
      ],
      "name": "getCommerceFee",
      "outputs": [
        {
          "internalType": "uint256",
          "name": "",
          "type": "uint256"
        }
      ],
      "stateMutability": "view",
      "type": "function"
    },
    {
      "inputs": [],
      "name": "getDefaultAdminRole",
      "outputs": [
        {
          "internalType": "bytes32",
          "name": "",
          "type": "bytes32"
        }
      ],
      "stateMutability": "pure",
      "type": "function"
    },
    {
      "inputs": [],
      "name": "getDefaultFeePercent",
      "outputs": [
        {
          "internalType": "uint256",
          "name": "",
          "type": "uint256"
        }
      ],
      "stateMutability": "view",
      "type": "function"
    },
    {
      "inputs": [],
      "name": "getOnboardingRole",
      "outputs": [
        {
          "internalType": "bytes32",
          "name": "",
          "type": "bytes32"
        }
      ],
      "stateMutability": "pure",
      "type": "function"
    },
    {
      "inputs": [
        {
          "internalType": "bytes32",
          "name": "role",
          "type": "bytes32"
        }
      ],
      "name": "getRoleAdmin",
      "outputs": [
        {
          "internalType": "bytes32",
          "name": "",
          "type": "bytes32"
        }
      ],
      "stateMutability": "view",
      "type": "function"
    },
    {
      "inputs": [],
      "name": "getTokenManagerRole",
      "outputs": [
        {
          "internalType": "bytes32",
          "name": "",
          "type": "bytes32"
        }
      ],
      "stateMutability": "pure",
      "type": "function"
    },
    {
      "inputs": [],
      "name": "getTreasuryManagerRole",
      "outputs": [
        {
          "internalType": "bytes32",
          "name": "",
          "type": "bytes32"
        }
      ],
      "stateMutability": "pure",
      "type": "function"
    },
    {
      "inputs": [],
      "name": "getWhitelistedTokens",
      "outputs": [
        {
          "internalType": "address[]",
          "name": "",
          "type": "address[]"
        }
      ],
      "stateMutability": "view",
      "type": "function"
    },
    {
      "inputs": [
        {
          "internalType": "bytes32",
          "name": "role",
          "type": "bytes32"
        },
        {
          "internalType": "address",
          "name": "account",
          "type": "address"
        }
      ],
      "name": "grantRole",
      "outputs": [],
      "stateMutability": "nonpayable",
      "type": "function"
    },
    {
      "inputs": [
        {
          "internalType": "bytes32",
          "name": "role",
          "type": "bytes32"
        },
        {
          "internalType": "address",
          "name": "account",
          "type": "address"
        }
      ],
      "name": "hasRole",
      "outputs": [
        {
          "internalType": "bool",
          "name": "",
          "type": "bool"
        }
      ],
      "stateMutability": "view",
      "type": "function"
    },
    {
      "inputs": [
        {
          "internalType": "address",
          "name": "commerce",
          "type": "address"
        }
      ],
      "name": "isCommerceWhitelisted",
      "outputs": [
        {
          "internalType": "bool",
          "name": "",
          "type": "bool"
        }
      ],
      "stateMutability": "view",
      "type": "function"
    },
    {
      "inputs": [
        {
          "internalType": "address",
          "name": "token",
          "type": "address"
        }
      ],
      "name": "isTokenWhitelisted",
      "outputs": [
        {
          "internalType": "bool",
          "name": "",
          "type": "bool"
        }
      ],
      "stateMutability": "view",
      "type": "function"
    },
    {
      "inputs": [
        {
          "internalType": "address",
          "name": "commerce",
          "type": "address"
        },
        {
          "internalType": "address",
          "name": "token",
          "type": "address"
        }
      ],
      "name": "isTokenWhitelistedForCommerce",
      "outputs": [
        {
          "internalType": "bool",
          "name": "",
          "type": "bool"
        }
      ],
      "stateMutability": "view",
      "type": "function"
    },
    {
      "inputs": [],
      "name": "proxy",
      "outputs": [
        {
          "internalType": "address",
          "name": "",
          "type": "address"
        }
      ],
      "stateMutability": "view",
      "type": "function"
    },
    {
      "inputs": [
        {
          "internalType": "address",
          "name": "commerce",
          "type": "address"
        }
      ],
      "name": "removeCommerceFromWhitelist",
      "outputs": [],
      "stateMutability": "nonpayable",
      "type": "function"
    },
    {
      "inputs": [
        {
          "internalType": "address",
          "name": "commerce",
          "type": "address"
        },
        {
          "internalType": "address[]",
          "name": "tokens",
          "type": "address[]"
        }
      ],
      "name": "removeTokenFromCommerceWhitelist",
      "outputs": [],
      "stateMutability": "nonpayable",
      "type": "function"
    },
    {
      "inputs": [
        {
          "internalType": "address",
          "name": "token",
          "type": "address"
        }
      ],
      "name": "removeTokenFromWhitelist",
      "outputs": [],
      "stateMutability": "nonpayable",
      "type": "function"
    },
    {
      "inputs": [
        {
          "internalType": "bytes32",
          "name": "role",
          "type": "bytes32"
        },
        {
          "internalType": "address",
          "name": "callerConfirmation",
          "type": "address"
        }
      ],
      "name": "renounceRole",
      "outputs": [],
      "stateMutability": "nonpayable",
      "type": "function"
    },
    {
      "inputs": [
        {
          "internalType": "bytes32",
          "name": "role",
          "type": "bytes32"
        },
        {
          "internalType": "address",
          "name": "account",
          "type": "address"
        }
      ],
      "name": "revokeRole",
      "outputs": [],
      "stateMutability": "nonpayable",
      "type": "function"
    },
    {
      "inputs": [
        {
          "internalType": "address",
          "name": "commerce",
          "type": "address"
        },
        {
          "internalType": "uint256",
          "name": "feePercent",
          "type": "uint256"
        }
      ],
      "name": "setCommerceFee",
      "outputs": [],
      "stateMutability": "nonpayable",
      "type": "function"
    },
    {
      "inputs": [
        {
          "internalType": "uint256",
          "name": "feePercent",
          "type": "uint256"
        }
      ],
      "name": "setDefaultFeePercent",
      "outputs": [],
      "stateMutability": "nonpayable",
      "type": "function"
    },
    {
      "inputs": [],
      "name": "storageContract",
      "outputs": [
        {
          "internalType": "contract IDerampStorage",
          "name": "",
          "type": "address"
        }
      ],
      "stateMutability": "view",
      "type": "function"
    },
    {
      "inputs": [
        {
          "internalType": "bytes4",
          "name": "interfaceId",
          "type": "bytes4"
        }
      ],
      "name": "supportsInterface",
      "outputs": [
        {
          "internalType": "bool",
          "name": "",
          "type": "bool"
        }
      ],
      "stateMutability": "view",
      "type": "function"
    }
  ],
  "bytecode": "0x60c03461026857601f611ebd38819003918201601f19168301916001600160401b0383118484101761026d57808492604094855283398101031261026857610052602061004b83610283565b9201610283565b6001600160a01b0390911660805260a052600080516020611e5d833981519152600081815260208190527f6f709d372e381d46f675fcbbbb1a788ea7d897d227e9563cbed2b9cee9d5a7618054908290559091600080516020611d7d8339815191528380a4600080516020611ddd833981519152600081815260208190527f576e6b4a1c65e6c1c7a304850c027b050999e591be341911f940a2264d79cea38054908290559091600080516020611d7d8339815191528380a4600080516020611dfd833981519152600081815260208190527f5b444936b1af04ffee1fe3046e0c1ce51d425198d231b995f86357e304f122098054908290559091600080516020611d7d8339815191528380a4600080516020611e9d833981519152600081815260208190527f15ab7d0ee832b6b792c5d0413f06a0d444f0d4ad4dff78c5dc11a9efe7ffe63d8054908290559091600080516020611d7d8339815191528380a46101bc33610297565b506101c633610313565b506101d033610399565b506101da3361041f565b506101e4336104a5565b50604051611831908161052c8239608051818181610221015281816103b6015281816105590152818161067b015281816108e40152818161098901528181610ac201528181610b4501528181610cb001528181610d7001528181610f230152818161108201528181611105015281816112b50152611433015260a051816103280152f35b600080fd5b634e487b7160e01b600052604160045260246000fd5b51906001600160a01b038216820361026857565b6001600160a01b0381166000908152600080516020611e7d833981519152602052604090205460ff1661030d576001600160a01b03166000818152600080516020611e7d83398151915260205260408120805460ff19166001179055339190600080516020611d5d8339815191528180a4600190565b50600090565b6001600160a01b0381166000908152600080516020611e1d833981519152602052604090205460ff1661030d576001600160a01b03166000818152600080516020611e1d83398151915260205260408120805460ff19166001179055339190600080516020611e5d83398151915290600080516020611d5d8339815191529080a4600190565b6001600160a01b0381166000908152600080516020611d9d833981519152602052604090205460ff1661030d576001600160a01b03166000818152600080516020611d9d83398151915260205260408120805460ff19166001179055339190600080516020611ddd83398151915290600080516020611d5d8339815191529080a4600190565b6001600160a01b0381166000908152600080516020611e3d833981519152602052604090205460ff1661030d576001600160a01b03166000818152600080516020611e3d83398151915260205260408120805460ff19166001179055339190600080516020611dfd83398151915290600080516020611d5d8339815191529080a4600190565b6001600160a01b0381166000908152600080516020611dbd833981519152602052604090205460ff1661030d576001600160a01b03166000818152600080516020611dbd83398151915260205260408120805460ff19166001179055339190600080516020611e9d83398151915290600080516020611d5d8339815191529080a460019056fe608080604052600436101561001357600080fd5b600090813560e01c90816301ffc9a7146114625750806311ce02671461141d578063179738d0146113f45780631837e566146113f4578063248a9ca3146113c657806327241959146112605780632f2ff15d146111f4578063306275be146110be578063311146971461103e57806336568abe14610ff95780633c3459d3146103575780634edcc5ae14610ed857806351858e2714610e5657806352a9c8d714610c225780636aae0c7914610d255780636d0109b114610c8957806391d1485414610c3e578063a217fddf14610c22578063a85dddc014610afe578063b5af090f14610a7e578063b8e54d561461094e578063bd4ec44d14610890578063c2840e60146107a5578063cb9ea57114610855578063d547741f146107e0578063d64bef25146107a5578063d84c1b3814610624578063dd55002d14610508578063e26f790014610392578063ebdf690f14610357578063ec55688914610312578063eea5aedf146101c95763f636cf911461018c57600080fd5b346101c657806003193601126101c65760206040517fdc26dbf33366c7fdaff2ccd76e3e7640ddbc675f2122b44cac83800de20b32778152f35b80fd5b50346101c65760403660031901126101c6576101e36114b7565b8180526020828152604080842033600090815292529020546024359060ff1680156102e3575b6102129061154a565b61021f6064821115611653565b7f00000000000000000000000000000000000000000000000000000000000000006001600160a01b0316918390833b156102df5781809160446040518094819363eea5aedf60e01b835260018060a01b0316988960048401528860248401525af180156102d4576102bb575b505060207f522a508b379388dc0ebfd9ad926f57d20e4a07bb0afb94fe79ba8f758927a5af91604051908152a280f35b816102c59161158c565b6102d057823861028b565b8280fd5b6040513d84823e3d90fd5b5080fd5b506000805160206117dc833981519152835260208381526040808520336000908152925290205460ff16610209565b50346101c657806003193601126101c6576040517f00000000000000000000000000000000000000000000000000000000000000006001600160a01b03168152602090f35b50346101c657806003193601126101c65760206040517fede9dcdb0ce99dc7cec9c7be9246ad08b37853683ad91569c187b647ddf5e21c8152f35b50346101c657806003193601126101c65760405162e26f7960e81b815281816004817f00000000000000000000000000000000000000000000000000000000000000006001600160a01b03165afa9081156102d457829161043d575b5090604051918291602083016020845282518091526020604085019301915b81811061041b575050500390f35b82516001600160a01b031684528594506020938401939092019160010161040d565b90503d8083833e61044e818361158c565b8101906020818303126102d05780519067ffffffffffffffff8211610504570181601f820112156102d05780519167ffffffffffffffff83116104f0578260051b91604051936104a1602085018661158c565b84526020808501938201019182116104ec57602001915b8183106104c857505050386103ee565b82516001600160a01b03811681036104e8578152602092830192016104b8565b8580fd5b8480fd5b634e487b7160e01b84526041600452602484fd5b8380fd5b50346101c65760203660031901126101c6578080526020818152604080832033600090815292529020546004359060ff1680156105f5575b6105499061154a565b6105566064821115611653565b817f00000000000000000000000000000000000000000000000000000000000000006001600160a01b0316803b156102df5781809160246040518094819363dd55002d60e01b83528860048401525af180156102d4576105e0575b507f1ba0c7196822b2db3b609b1fbf446c9e0857b6864a4143877b6eb5fa9e9d2bb7602083604051908152a180f35b816105ea9161158c565b6102df5781386105b1565b506000805160206117dc833981519152825260208281526040808420336000908152925290205460ff16610540565b50346101c65760203660031901126101c65761063e6114b7565b81805260208281526040808420336000908152925290205460ff168015610764575b6106699061154a565b6001600160a01b0316801561071f57817f00000000000000000000000000000000000000000000000000000000000000006001600160a01b0316803b156102df578180916044604051809481936376ce28f160e01b8352886004840152600160248401525af180156102d45761070a575b50507fef81a9943b96c8df4ef243401c9bf5159146166211356898b52d382086168d92602060405160018152a280f35b816107149161158c565b6102df5781386106da565b60405162461bcd60e51b815260206004820152601a60248201527f496e76616c696420746f6b656e2061646472657373205b414d5d0000000000006044820152606490fd5b507f74f7a545c65c11839a48d7453738b30c295408df2d944516167556759ddc6d06825260208281526040808420336000908152925290205460ff16610660565b50346101c657806003193601126101c65760206040517f74f7a545c65c11839a48d7453738b30c295408df2d944516167556759ddc6d068152f35b50346101c65760403660031901126101c6576108516004356108006114cd565b90838052836020526040842060018060a01b03331660005260205261082c60ff604060002054166115c4565b61084c61084782600052600060205260016040600020015490565b61171c565b611693565b5080f35b50346101c657806003193601126101c65760206040517fdc26dbf33366c7fdaff2ccd76e3e7640ddbc675f2122b44cac83800de20b32778152f35b50346101c65760403660031901126101c6576108aa6114b7565b6108b26114cd565b60405163bd4ec44d60e01b81526001600160a01b039283166004820152908216602482015290602090829060449082907f0000000000000000000000000000000000000000000000000000000000000000165afa9081156102d45760209291610921575b506040519015158152f35b6109419150823d8411610947575b610939818361158c565b810190611601565b38610916565b503d61092f565b50346101c65760203660031901126101c6576109686114b7565b60405163283f05e960e21b81526001600160a01b03918216600482015291907f000000000000000000000000000000000000000000000000000000000000000016602083602481845afa9283156102d4578293610a4a575b5082156109d55750506020905b604051908152f35b6040516339e49b5760e21b81529250602090839060049082905afa908115610a3e5790610a06575b602091506109cd565b506020813d602011610a36575b81610a206020938361158c565b81010312610a3157602090516109fd565b600080fd5b3d9150610a13565b604051903d90823e3d90fd5b9092506020813d602011610a76575b81610a666020938361158c565b81010312610a31575191386109c0565b3d9150610a59565b50346101c65760203660031901126101c657610a986114b7565b604051630daf9c2160e41b81526001600160a01b03918216600482015290602090829060249082907f0000000000000000000000000000000000000000000000000000000000000000165afa9081156102d4576020929161092157506040519015158152f35b50346101c65760203660031901126101c657610b186114b7565b81805260208281526040808420336000908152925290205460ff168015610bf3575b610b439061154a565b7f00000000000000000000000000000000000000000000000000000000000000006001600160a01b0316908290823b156102df57818091604460405180948193630ddc4c2b60e21b835260018060a01b0316978860048401528160248401525af180156102d457610bde575b50507f33fdee3f37b44fe291caa421fd5f1e8e290142ddd6b240110f288f3dfecd93476020604051848152a280f35b81610be89161158c565b6102df578138610baf565b506000805160206117dc833981519152825260208281526040808420336000908152925290205460ff16610b3a565b50346101c657806003193601126101c657602090604051908152f35b50346101c65760403660031901126101c6576040610c5a6114cd565b91600435815280602052209060018060a01b0316600052602052602060ff604060002054166040519015158152f35b50346101c657806003193601126101c6576040516339e49b5760e21b8152906020826004817f00000000000000000000000000000000000000000000000000000000000000006001600160a01b03165afa908115610a3e5790610cf2575b602090604051908152f35b506020813d602011610d1d575b81610d0c6020938361158c565b81010312610a315760209051610ce7565b3d9150610cff565b50346101c65780610d35366114e3565b83805260208481526040808620336000908152925290205491939160ff168015610e27575b610d669094919461154a565b6001600160a01b037f00000000000000000000000000000000000000000000000000000000000000008116931690825b858110610da1578380f35b610db4610daf828885611619565b61163f565b853b156104ec57604051635b8fcad160e11b8152600481018590526001600160a01b039091166024820152600160448201528481606481838a5af1908115610e1c578591610e07575b5050600101610d96565b81610e119161158c565b610504578338610dfd565b6040513d87823e3d90fd5b506000805160206117dc833981519152825260208281526040808420336000908152925290205460ff16610d5a565b50346101c657806003193601126101c657808052602081815260408083203360009081529252902054610e8b9060ff166115c4565b60405160208152600d60208201526c14d654d5115357d4105554d151609a1b60408201527f2a09e26ec96218a3a144df2e04de096b7f0410106a4caff3cdfa5d667e604f2a60603392a280f35b50346101c65780610ee8366114e3565b83805260208481526040808620336000908152925290205491939160ff168015610fca575b610f199094919461154a565b6001600160a01b037f00000000000000000000000000000000000000000000000000000000000000008116931690825b858110610f54578380f35b610f62610daf828885611619565b853b156104ec57604051635b8fcad160e11b8152600481018590526001600160a01b039091166024820152604481018590528481606481838a5af1908115610e1c578591610fb5575b5050600101610f49565b81610fbf9161158c565b610504578338610fab565b506000805160206117dc833981519152825260208281526040808420336000908152925290205460ff16610f0d565b50346101c65760403660031901126101c6576110136114cd565b336001600160a01b0382160361102f5761085190600435611693565b63334bd91960e11b8252600482fd5b50346101c65760203660031901126101c6576110586114b7565b60405163c537d44360e01b81526001600160a01b03918216600482015290602090829060249082907f0000000000000000000000000000000000000000000000000000000000000000165afa9081156102d4576020929161092157506040519015158152f35b50346101c65760203660031901126101c6576110d86114b7565b81805260208281526040808420336000908152925290205460ff1680156111b3575b6111039061154a565b7f00000000000000000000000000000000000000000000000000000000000000006001600160a01b0316908290823b156102df578180916044604051809481936376ce28f160e01b835260018060a01b0316978860048401528160248401525af180156102d45761119e575b50507fef81a9943b96c8df4ef243401c9bf5159146166211356898b52d382086168d926020604051848152a280f35b816111a89161158c565b6102df57813861116f565b507f74f7a545c65c11839a48d7453738b30c295408df2d944516167556759ddc6d06825260208281526040808420336000908152925290205460ff166110fa565b50346101c65760403660031901126101c6576108516004356112146114cd565b90838052836020526040842060018060a01b03331660005260205261124060ff604060002054166115c4565b61125b61084782600052600060205260016040600020015490565b611757565b50346101c65760203660031901126101c65761127a6114b7565b8180526020828152604080842033855290915282205460ff168015611399575b6112a39061154a565b6001600160a01b0316908115611354577f00000000000000000000000000000000000000000000000000000000000000006001600160a01b0316803b156102df57818091604460405180948193630ddc4c2b60e21b8352886004840152600160248401525af180156102d457611344575b50907f33fdee3f37b44fe291caa421fd5f1e8e290142ddd6b240110f288f3dfecd9347602060405160018152a280f35b8161134e9161158c565b38611314565b60405162461bcd60e51b815260206004820152601d60248201527f496e76616c696420636f6d6d657263652061646472657373205b414d5d0000006044820152606490fd5b506000805160206117dc83398151915282526020828152604080842033855290915282205460ff1661129a565b50346101c65760203660031901126101c65760206109cd600435600052600060205260016040600020015490565b50346101c657806003193601126101c65760206040516000805160206117dc8339815191528152f35b50346101c657806003193601126101c6576040517f00000000000000000000000000000000000000000000000000000000000000006001600160a01b03168152602090f35b9050346102df5760203660031901126102df5760043563ffffffff60e01b81168091036102d05760209250637965db0b60e01b81149081156114a6575b5015158152f35b6301ffc9a760e01b1490503861149f565b600435906001600160a01b0382168203610a3157565b602435906001600160a01b0382168203610a3157565b6040600319820112610a31576004356001600160a01b0381168103610a31579160243567ffffffffffffffff8111610a315782602382011215610a315780600401359267ffffffffffffffff8411610a315760248460051b83010111610a31576024019190565b1561155157565b60405162461bcd60e51b81526020600482015260136024820152724e6f7420617574686f72697a6564205b414d5d60681b6044820152606490fd5b90601f8019910116810190811067ffffffffffffffff8211176115ae57604052565b634e487b7160e01b600052604160045260246000fd5b156115cb57565b60405162461bcd60e51b815260206004820152600e60248201526d4e6f742061646d696e205b414d5d60901b6044820152606490fd5b90816020910312610a3157518015158103610a315790565b91908110156116295760051b0190565b634e487b7160e01b600052603260045260246000fd5b356001600160a01b0381168103610a315790565b1561165a57565b60405162461bcd60e51b815260206004820152601160248201527046656520746f6f2068696768205b414d5d60781b6044820152606490fd5b6000818152602081815260408083206001600160a01b038616845290915290205460ff1615611715576000818152602081815260408083206001600160a01b0395909516808452949091528120805460ff19169055339291907ff6391f5c32d9c69d2a47ea670b442974b53935d1edc7fd64eb21e047a839171b9080a4600190565b5050600090565b60008181526020818152604080832033845290915290205460ff161561173f5750565b63e2517d3f60e01b6000523360045260245260446000fd5b6000818152602081815260408083206001600160a01b038616845290915290205460ff16611715576000818152602081815260408083206001600160a01b0395909516808452949091528120805460ff19166001179055339291907f2f8788117e7eff1d82e926ec794901d17c78024a50270940304540a733656f0d9080a460019056fe41ab08329fb0a2935fa2b8b127e3380ff152b38c9f016ae14226bf4decc87466a264697066735822122052450c75e354d73fe5974ed86f445ffb45df7ecf79eda8943eed11d9d2af9bcd64736f6c634300081c00332f8788117e7eff1d82e926ec794901d17c78024a50270940304540a733656f0dbd79b86ffe0ab8e8776151514217cd7cacd52c909f66475c3af44e129f0b00ff576e6b4a1c65e6c1c7a304850c027b050999e591be341911f940a2264d79cea215ab7d0ee832b6b792c5d0413f06a0d444f0d4ad4dff78c5dc11a9efe7ffe63c74f7a545c65c11839a48d7453738b30c295408df2d944516167556759ddc6d06ede9dcdb0ce99dc7cec9c7be9246ad08b37853683ad91569c187b647ddf5e21c6f709d372e381d46f675fcbbbb1a788ea7d897d227e9563cbed2b9cee9d5a7605b444936b1af04ffee1fe3046e0c1ce51d425198d231b995f86357e304f1220841ab08329fb0a2935fa2b8b127e3380ff152b38c9f016ae14226bf4decc87466ad3228b676f7d3cd4284a5443f17f1962b36e491b30a40b2405849e597ba5fb5dc26dbf33366c7fdaff2ccd76e3e7640ddbc675f2122b44cac83800de20b3277",
  "linkReferences": {},
  "deployedLinkReferences": {}
}