{
  "_format": "hh-sol-artifact-1",
  "contractName": "DerampProxy",
  "sourceName": "contracts/DerampProxy.sol",
  "abi": [
    {
      "inputs": [],
      "stateMutability": "nonpayable",
      "type": "constructor"
    },
    {
      "inputs": [],
      "name": "EnforcedPause",
      "type": "error"
    },
    {
      "inputs": [],
      "name": "ExpectedPause",
      "type": "error"
    },
    {
      "inputs": [
        {
          "internalType": "address",
          "name": "owner",
          "type": "address"
        }
      ],
      "name": "OwnableInvalidOwner",
      "type": "error"
    },
    {
      "inputs": [
        {
          "internalType": "address",
          "name": "account",
          "type": "address"
        }
      ],
      "name": "OwnableUnauthorizedAccount",
      "type": "error"
    },
    {
      "inputs": [],
      "name": "ReentrancyGuardReentrantCall",
      "type": "error"
    },
    {
      "inputs": [
        {
          "internalType": "address",
          "name": "token",
          "type": "address"
        }
      ],
      "name": "SafeERC20FailedOperation",
      "type": "error"
    },
    {
      "anonymous": false,
      "inputs": [
        {
          "indexed": false,
          "internalType": "string",
          "name": "reason",
          "type": "string"
        }
      ],
      "name": "Emergency",
      "type": "event"
    },
    {
      "anonymous": false,
      "inputs": [
        {
          "indexed": false,
          "internalType": "string",
          "name": "moduleName",
          "type": "string"
        },
        {
          "indexed": false,
          "internalType": "address",
          "name": "oldAddress",
          "type": "address"
        },
        {
          "indexed": false,
          "internalType": "address",
          "name": "newAddress",
          "type": "address"
        }
      ],
      "name": "ModuleUpdated",
      "type": "event"
    },
    {
      "anonymous": false,
      "inputs": [
        {
          "indexed": true,
          "internalType": "address",
          "name": "previousOwner",
          "type": "address"
        },
        {
          "indexed": true,
          "internalType": "address",
          "name": "newOwner",
          "type": "address"
        }
      ],
      "name": "OwnershipTransferred",
      "type": "event"
    },
    {
      "anonymous": false,
      "inputs": [
        {
          "indexed": false,
          "internalType": "address",
          "name": "account",
          "type": "address"
        }
      ],
      "name": "Paused",
      "type": "event"
    },
    {
      "anonymous": false,
      "inputs": [
        {
          "indexed": false,
          "internalType": "address",
          "name": "account",
          "type": "address"
        }
      ],
      "name": "Unpaused",
      "type": "event"
    },
    {
      "stateMutability": "payable",
      "type": "fallback"
    },
    {
      "inputs": [],
      "name": "accessManager",
      "outputs": [
        {
          "internalType": "address",
          "name": "",
          "type": "address"
        }
      ],
      "stateMutability": "view",
      "type": "function"
    },
    {
      "inputs": [
        {
          "internalType": "address",
          "name": "wallet",
          "type": "address"
        },
        {
          "internalType": "string",
          "name": "description",
          "type": "string"
        }
      ],
      "name": "addTreasuryWallet",
      "outputs": [],
      "stateMutability": "nonpayable",
      "type": "function"
    },
    {
      "inputs": [
        {
          "internalType": "bytes32",
          "name": "id",
          "type": "bytes32"
        }
      ],
      "name": "cancelInvoice",
      "outputs": [],
      "stateMutability": "nonpayable",
      "type": "function"
    },
    {
      "inputs": [
        {
          "internalType": "bytes32",
          "name": "id",
          "type": "bytes32"
        },
        {
          "internalType": "address",
          "name": "commerce",
          "type": "address"
        },
        {
          "components": [
            {
              "internalType": "address",
              "name": "token",
              "type": "address"
            },
            {
              "internalType": "uint256",
              "name": "amount",
              "type": "uint256"
            }
          ],
          "internalType": "struct IDerampStorage.PaymentOption[]",
          "name": "paymentOptions",
          "type": "tuple[]"
        },
        {
          "internalType": "uint256",
          "name": "expiresAt",
          "type": "uint256"
        }
      ],
      "name": "createInvoice",
      "outputs": [],
      "stateMutability": "nonpayable",
      "type": "function"
    },
    {
      "inputs": [],
      "name": "invoiceManager",
      "outputs": [
        {
          "internalType": "address",
          "name": "",
          "type": "address"
        }
      ],
      "stateMutability": "view",
      "type": "function"
    },
    {
      "inputs": [],
      "name": "owner",
      "outputs": [
        {
          "internalType": "address",
          "name": "",
          "type": "address"
        }
      ],
      "stateMutability": "view",
      "type": "function"
    },
    {
      "inputs": [],
      "name": "pause",
      "outputs": [],
      "stateMutability": "nonpayable",
      "type": "function"
    },
    {
      "inputs": [],
      "name": "paused",
      "outputs": [
        {
          "internalType": "bool",
          "name": "",
          "type": "bool"
        }
      ],
      "stateMutability": "view",
      "type": "function"
    },
    {
      "inputs": [
        {
          "internalType": "bytes32",
          "name": "invoiceId",
          "type": "bytes32"
        },
        {
          "internalType": "address",
          "name": "token",
          "type": "address"
        },
        {
          "internalType": "uint256",
          "name": "amount",
          "type": "uint256"
        }
      ],
      "name": "payInvoice",
      "outputs": [],
      "stateMutability": "payable",
      "type": "function"
    },
    {
      "inputs": [],
      "name": "paymentProcessor",
      "outputs": [
        {
          "internalType": "address",
          "name": "",
          "type": "address"
        }
      ],
      "stateMutability": "view",
      "type": "function"
    },
    {
      "inputs": [
        {
          "internalType": "bytes32",
          "name": "id",
          "type": "bytes32"
        }
      ],
      "name": "refundInvoice",
      "outputs": [],
      "stateMutability": "nonpayable",
      "type": "function"
    },
    {
      "inputs": [
        {
          "internalType": "address",
          "name": "wallet",
          "type": "address"
        }
      ],
      "name": "removeTreasuryWallet",
      "outputs": [],
      "stateMutability": "nonpayable",
      "type": "function"
    },
    {
      "inputs": [],
      "name": "renounceOwnership",
      "outputs": [],
      "stateMutability": "nonpayable",
      "type": "function"
    },
    {
      "inputs": [
        {
          "internalType": "address",
          "name": "_accessManager",
          "type": "address"
        }
      ],
      "name": "setAccessManager",
      "outputs": [],
      "stateMutability": "nonpayable",
      "type": "function"
    },
    {
      "inputs": [
        {
          "internalType": "address",
          "name": "_invoiceManager",
          "type": "address"
        }
      ],
      "name": "setInvoiceManager",
      "outputs": [],
      "stateMutability": "nonpayable",
      "type": "function"
    },
    {
      "inputs": [
        {
          "internalType": "address",
          "name": "_paymentProcessor",
          "type": "address"
        }
      ],
      "name": "setPaymentProcessor",
      "outputs": [],
      "stateMutability": "nonpayable",
      "type": "function"
    },
    {
      "inputs": [
        {
          "internalType": "address",
          "name": "_storage",
          "type": "address"
        }
      ],
      "name": "setStorageContract",
      "outputs": [],
      "stateMutability": "nonpayable",
      "type": "function"
    },
    {
      "inputs": [
        {
          "internalType": "address",
          "name": "_treasuryManager",
          "type": "address"
        }
      ],
      "name": "setTreasuryManager",
      "outputs": [],
      "stateMutability": "nonpayable",
      "type": "function"
    },
    {
      "inputs": [
        {
          "internalType": "address",
          "name": "wallet",
          "type": "address"
        },
        {
          "internalType": "bool",
          "name": "isActive",
          "type": "bool"
        }
      ],
      "name": "setTreasuryWalletStatus",
      "outputs": [],
      "stateMutability": "nonpayable",
      "type": "function"
    },
    {
      "inputs": [
        {
          "internalType": "address",
          "name": "_withdrawalManager",
          "type": "address"
        }
      ],
      "name": "setWithdrawalManager",
      "outputs": [],
      "stateMutability": "nonpayable",
      "type": "function"
    },
    {
      "inputs": [],
      "name": "storageContract",
      "outputs": [
        {
          "internalType": "address",
          "name": "",
          "type": "address"
        }
      ],
      "stateMutability": "view",
      "type": "function"
    },
    {
      "inputs": [
        {
          "internalType": "bytes4",
          "name": "interfaceId",
          "type": "bytes4"
        }
      ],
      "name": "supportsInterface",
      "outputs": [
        {
          "internalType": "bool",
          "name": "",
          "type": "bool"
        }
      ],
      "stateMutability": "pure",
      "type": "function"
    },
    {
      "inputs": [
        {
          "internalType": "address",
          "name": "newOwner",
          "type": "address"
        }
      ],
      "name": "transferOwnership",
      "outputs": [],
      "stateMutability": "nonpayable",
      "type": "function"
    },
    {
      "inputs": [],
      "name": "treasuryManager",
      "outputs": [
        {
          "internalType": "address",
          "name": "",
          "type": "address"
        }
      ],
      "stateMutability": "view",
      "type": "function"
    },
    {
      "inputs": [],
      "name": "unpause",
      "outputs": [],
      "stateMutability": "nonpayable",
      "type": "function"
    },
    {
      "inputs": [
        {
          "internalType": "address",
          "name": "wallet",
          "type": "address"
        },
        {
          "components": [
            {
              "internalType": "address",
              "name": "wallet",
              "type": "address"
            },
            {
              "internalType": "bool",
              "name": "isActive",
              "type": "bool"
            },
            {
              "internalType": "uint256",
              "name": "addedAt",
              "type": "uint256"
            },
            {
              "internalType": "string",
              "name": "description",
              "type": "string"
            }
          ],
          "internalType": "struct IDerampStorage.TreasuryWallet",
          "name": "updatedWallet",
          "type": "tuple"
        }
      ],
      "name": "updateTreasuryWallet",
      "outputs": [],
      "stateMutability": "nonpayable",
      "type": "function"
    },
    {
      "inputs": [
        {
          "internalType": "address",
          "name": "token",
          "type": "address"
        }
      ],
      "name": "withdraw",
      "outputs": [],
      "stateMutability": "nonpayable",
      "type": "function"
    },
    {
      "inputs": [
        {
          "internalType": "address[]",
          "name": "tokens",
          "type": "address[]"
        }
      ],
      "name": "withdrawAll",
      "outputs": [],
      "stateMutability": "nonpayable",
      "type": "function"
    },
    {
      "inputs": [
        {
          "internalType": "address[]",
          "name": "tokens",
          "type": "address[]"
        },
        {
          "internalType": "address",
          "name": "to",
          "type": "address"
        }
      ],
      "name": "withdrawAllServiceFeesToTreasury",
      "outputs": [],
      "stateMutability": "nonpayable",
      "type": "function"
    },
    {
      "inputs": [
        {
          "internalType": "address",
          "name": "to",
          "type": "address"
        }
      ],
      "name": "withdrawAllServiceFeesToTreasuryAll",
      "outputs": [],
      "stateMutability": "nonpayable",
      "type": "function"
    },
    {
      "inputs": [
        {
          "internalType": "address",
          "name": "token",
          "type": "address"
        },
        {
          "internalType": "address",
          "name": "to",
          "type": "address"
        }
      ],
      "name": "withdrawServiceFeesToTreasury",
      "outputs": [],
      "stateMutability": "nonpayable",
      "type": "function"
    },
    {
      "inputs": [
        {
          "internalType": "address",
          "name": "token",
          "type": "address"
        },
        {
          "internalType": "uint256",
          "name": "amount",
          "type": "uint256"
        },
        {
          "internalType": "address",
          "name": "to",
          "type": "address"
        }
      ],
      "name": "withdrawTo",
      "outputs": [],
      "stateMutability": "nonpayable",
      "type": "function"
    },
    {
      "inputs": [],
      "name": "withdrawalManager",
      "outputs": [
        {
          "internalType": "address",
          "name": "",
          "type": "address"
        }
      ],
      "stateMutability": "view",
      "type": "function"
    },
    {
      "stateMutability": "payable",
      "type": "receive"
    }
  ],
  "bytecode": "0x60808060405234607957331560635760008054336001600160a01b0319821681178355916001600160a01b03909116907f8be0079c531659141344cd1fd0a4f28419497f9722a3daafe3b4186f6b6457e09080a36001805561308b908161007f8239f35b631e4fbdf760e01b600052600060045260246000fd5b600080fdfe60806040526004361015610018575b36612a43576129fe565b60003560e01c806301ffc9a714610228578063088b0d75146102235780631173368b1461021e57806311ce0267146102195780631b2e9a09146102145780633cea70d91461020f5780633d8cad901461020a5780633f4ba83a1461020557806351cff8d9146102005780635c975abb146101fb5780636568a279146101f6578063715018a6146101f157806382fe535a146101ec5780638456cb59146101e75780638da5cb5b146101e25780639416829f146101dd5780639c1a381d146101d8578063ab51ef1d146101d3578063b764c1e5146101ce578063bd5a8ac0146101c9578063bdaa8c9c146101c4578063c0aa7e2e146101bf578063c4e2c1e6146101ba578063c6960df1146101b5578063c9580804146101b0578063dc38b0a2146101ab578063e1a9ef45146101a6578063e560822b146101a1578063f1c6bdf81461019c578063f2fde38b14610197578063fc72ed5b14610192578063fdcb60681461018d5763fe47a9f20361000e57611696565b61166d565b6115de565b611551565b611528565b611397565b6112dc565b611257565b6111cc565b6110fc565b611072565b610fb2565b610f26565b610e6a565b610c8f565b610ace565b610931565b6108ca565b6108a1565b6107e7565b6107be565b610765565b6106d7565b610681565b6105de565b61056d565b610544565b61051b565b6104aa565b610481565b61033a565b6102ac565b346102965760203660031901126102965760043563ffffffff60e01b8116809103610296576020906301ffc9a760e01b8114908115610285575b8115610274575b506040519015158152f35b635c975abb60e01b14905038610269565b6307f5828d60e41b81149150610262565b600080fd5b6001600160a01b0381160361029657565b34610296576020366003190112610296576004356102c98161029b565b6102d1612a7d565b6005546040805160608082526010908201526f3830bcb6b2b73a283937b1b2b9b9b7b960811b60808201526001600160a01b038084166020830152909316908301819052916000805160206130368339815191529060a090a16001600160a01b03191617600555005b34610296576040366003190112610296576004356103578161029b565b602435906001600160401b03821161029657608060031983360301126102965760035461039a9061038e906001600160a01b031681565b6001600160a01b031690565b916040516352a9c8d760e01b8152602081600481875afa801561044d576103f294602092600092610452575b50604051632474521560e21b815260048101929092523360248301529094859190829081906044820190565b03915afa92831561044d5761041c936104139160009161041e575b50611792565b600401906117cf565b005b610440915060203d602011610446575b6104388183611739565b81019061177a565b3861040d565b503d61042e565b61176e565b610473919250833d851161047a575b61046b8183611739565b81019061175f565b90386103c6565b503d610461565b34610296576000366003190112610296576002546040516001600160a01b039091168152602090f35b34610296576080366003190112610296576024356004356104ca8261029b565b604435906001600160401b0382116102965736602383011215610296578160040135906001600160401b038211610296573660248360061b850101116102965761041c9360246064359401916118f0565b34610296576000366003190112610296576007546040516001600160a01b039091168152602090f35b34610296576000366003190112610296576004546040516001600160a01b039091168152602090f35b3461029657600036600319011261029657610586612a7d565b60005460ff8160a01c16156105cd5760ff60a01b19166000556040513381527f5db9ee0a495bf2e6ff9c91a7834c1ba4fdd244a5e8aa4e537bd38aeae4b073aa90602090a1005b638dfc202b60e01b60005260046000fd5b346102965760203660031901126102965760246004356105fd8161029b565b610605612aa6565b61060d612c76565b600354604051633111469760e01b81523360048201529260209184919082906001600160a01b03165afa91821561044d576106599261065491600091610662575b50611b63565b611bfb565b61041c60018055565b61067b915060203d602011610446576104388183611739565b3861064e565b3461029657600036600319011261029657602060ff60005460a01c166040519015158152f35b9181601f84011215610296578235916001600160401b038311610296576020808501948460051b01011161029657565b34610296576020366003190112610296576004356001600160401b0381116102965761070960249136906004016106a7565b90610712612aa6565b61071a612c76565b600354604051633111469760e01b81523360048201529360209185919082906001600160a01b03165afa92831561044d5761065993610760916000916106625750611b63565b611e46565b346102965760003660031901126102965761077e612a7d565b600080546001600160a01b0319811682556001600160a01b03167f8be0079c531659141344cd1fd0a4f28419497f9722a3daafe3b4186f6b6457e08280a3005b34610296576000366003190112610296576006546040516001600160a01b039091168152602090f35b3461029657600036600319011261029657610800612a7d565b610808612aa6565b6000805460ff60a01b1916600160a01b1790556040513381527f62e78cea01bee320cd4e420270b5ea74000d11b0c9f74754ebdbfc544b05a25890602090a17f0c88c89d9524dc37294186079c1e24f030fe3a34fc4588d216c71edde5cb745d606060405160208152601860208201527f436f6e747261637420706175736564206279206f776e657200000000000000006040820152a1005b34610296576000366003190112610296576000546040516001600160a01b039091168152602090f35b34610296576040366003190112610296576004356108e78161029b565b602435906001600160401b0382116102965736602383011215610296578160040135906001600160401b03821161029657366024838501011161029657602461041c930190611fba565b346102965760403660031901126102965760043561094e8161029b565b60243561095a8161029b565b6003546109719061038e906001600160a01b031681565b6040516352a9c8d760e01b81529290602084600481845afa93841561044d576109c794602091600091610ab1575b50604051632474521560e21b8152600481019190915233602482015294859081906044820190565b0381845afa93841561044d57600094610a90575b5083156109f5575b506109f061041c93612095565b6120d2565b604051633c3459d360e01b8152909350602081600481875afa801561044d57610a4e946020926000926104525750604051632474521560e21b815260048101929092523360248301529094859190829081906044820190565b03915afa92831561044d5761041c936109f091600091610a71575b5093506109e3565b610a8a915060203d602011610446576104388183611739565b38610a69565b610aaa91945060203d602011610446576104388183611739565b92386109db565b610ac89150823d841161047a5761046b8183611739565b3861099f565b3461029657602036600319011261029657600435610aea612aa6565b610af2612c76565b600254610b099061038e906001600160a01b031681565b60405163cb802c8b60e01b81526004810183905290919061018081602481865afa801561044d576040610b5191610b6a93600091610c70575b5001516001600160a01b031690565b610b656001600160a01b03821615156122b5565b612d94565b60405163cb802c8b60e01b8152600481018290529161018090839060249082905afa90811561044d5761065992600092610c33575b50610bee610bfc610c0192610bcc600160a0870151610bbd816122f5565b610bc6816122f5565b14612315565b60405163ab51ef1d60e01b602082015260248101919091529182906044820190565b03601f198101835282611739565b612f06565b6060810151610c18906001600160a01b031661038e565b6020820151608090920151916001600160a01b031690612d54565b610c01919250610bfc610c60610bee926101803d8111610c69575b610c588183611739565b810190612204565b93925050610b9f565b503d610c4e565b610c8991506101803d8111610c6957610c588183611739565b38610b42565b34610296576040366003190112610296576004356001600160401b03811161029657610cbf9036906004016106a7565b60243590610ccc8261029b565b600354610ce39061038e906001600160a01b031681565b6040516352a9c8d760e01b81529390602085600481845afa94851561044d57610d3995602091600091610e43575b50604051632474521560e21b8152600481019190915233602482015295869081906044820190565b0381845afa94851561044d57600095610e22575b508415610d67575b50610d6261041c94612095565b612357565b604051633c3459d360e01b8152909450602081600481885afa801561044d57610dc195602092600092610e03575b50604051632474521560e21b815260048101929092523360248301529095869190829081906044820190565b03915afa93841561044d5761041c94610d6291600091610de4575b509450610d55565b610dfd915060203d602011610446576104388183611739565b38610ddc565b610e1b919250833d851161047a5761046b8183611739565b9038610d95565b610e3c91955060203d602011610446576104388183611739565b9338610d4d565b610e5a9150823d841161047a5761046b8183611739565b38610d11565b8015150361029657565b3461029657604036600319011261029657600435610e878161029b565b602435610e9381610e60565b600354610eaa9061038e906001600160a01b031681565b916040516352a9c8d760e01b8152602081600481875afa801561044d57610f01946020926000926104525750604051632474521560e21b815260048101929092523360248301529094859190829081906044820190565b03915afa92831561044d5761041c93610f219160009161041e5750611792565b6124f0565b3461029657602036600319011261029657600435610f438161029b565b610f4b612a7d565b600454604080516060808252600e908201526d34b73b37b4b1b2a6b0b730b3b2b960911b60808201526001600160a01b038084166020830152909316908301819052916000805160206130368339815191529060a090a16001600160a01b03191617600455005b3461029657602036600319011261029657600435610fce612aa6565b600254610fe59061038e906001600160a01b031681565b60405163cb802c8b60e01b8152600481018390529061018090829060249082905afa801561044d5761041c9261104b611037604061106d94610bee96600091610c70575001516001600160a01b031690565b610b656001600160a01b0382161515612534565b6040516360553f1760e11b602082015260248101919091529182906044820190565b612bc1565b346102965760603660031901126102965760246004356110918161029b565b602435604435916110a18361029b565b6110a9612aa6565b6110b1612c76565b600354604051633111469760e01b81523360048201529460209186919082906001600160a01b03165afa93841561044d57610659946110f7916000916106625750611b63565b612661565b34610296576020366003190112610296576004356111198161029b565b6003546111309061038e906001600160a01b031681565b906040516352a9c8d760e01b8152602081600481865afa801561044d57611188936020926000926111ad575b50604051632474521560e21b815260048101929092523360248301529093849190829081906044820190565b03915afa91821561044d5761041c926111a89160009161041e5750611792565b61274b565b6111c5919250833d851161047a5761046b8183611739565b903861115c565b34610296576020366003190112610296576004356111e98161029b565b6111f1612a7d565b600354604080516060808252600d908201526c30b1b1b2b9b9a6b0b730b3b2b960991b60808201526001600160a01b038084166020830152909316908301819052916000805160206130368339815191529060a090a16001600160a01b03191617600355005b34610296576020366003190112610296576004356112748161029b565b61127c612a7d565b6002546040805160608082526007908201526673746f7261676560c81b60808201526001600160a01b038084166020830152909316908301819052916000805160206130368339815191529060a090a16001600160a01b03191617600255005b606036600319011261029657610659600435610bfc6024356112fd8161029b565b610bee6044359361130c612aa6565b611314612c76565b6113576040516323b872dd60e01b602082015233602482015230604482015286606482015260648152611348608482611739565b6001600160a01b038516612fda565b60405163be4ba8a960e01b602082015260248101919091526001600160a01b039092166044830152606482019390935233608482015291829060a4820190565b34610296576020366003190112610296576004356113b48161029b565b6003546113cb9061038e906001600160a01b031681565b6040516352a9c8d760e01b81529190602083600481845afa92831561044d576114219360209160009161150b575b50604051632474521560e21b8152600481019190915233602482015293849081906044820190565b0381845afa92831561044d576000936114ea575b50821561144f575b5061144a61041c92612095565b612788565b604051633c3459d360e01b8152909250602081600481865afa801561044d576114a8936020926000926111ad5750604051632474521560e21b815260048101929092523360248301529093849190829081906044820190565b03915afa91821561044d5761041c9261144a916000916114cb575b50925061143d565b6114e4915060203d602011610446576104388183611739565b386114c3565b61150491935060203d602011610446576104388183611739565b9138611435565b6115229150823d841161047a5761046b8183611739565b386113f9565b34610296576000366003190112610296576005546040516001600160a01b039091168152602090f35b346102965760203660031901126102965760043561156e8161029b565b611576612a7d565b6001600160a01b031680156115c857600080546001600160a01b03198116831782556001600160a01b0316907f8be0079c531659141344cd1fd0a4f28419497f9722a3daafe3b4186f6b6457e09080a3005b631e4fbdf760e01b600052600060045260246000fd5b34610296576020366003190112610296576004356115fb8161029b565b611603612a7d565b600654604080516060808252601190820152703bb4ba34323930bbb0b626b0b730b3b2b960791b60808201526001600160a01b038084166020830152909316908301819052916000805160206130368339815191529060a090a16001600160a01b03191617600655005b34610296576000366003190112610296576003546040516001600160a01b039091168152602090f35b34610296576020366003190112610296576004356116b38161029b565b6116bb612a7d565b600754604080516060808252600f908201526e3a3932b0b9bab93ca6b0b730b3b2b960891b60808201526001600160a01b038084166020830152909316908301819052916000805160206130368339815191529060a090a16001600160a01b03191617600755005b634e487b7160e01b600052604160045260246000fd5b90601f801991011681019081106001600160401b0382111761175a57604052565b611723565b90816020910312610296575190565b6040513d6000823e3d90fd5b90816020910312610296575161178f81610e60565b90565b1561179957565b60405162461bcd60e51b815260206004820152600e60248201526d4e6f742061646d696e205b50585d60901b6044820152606490fd5b906117d8612aa6565b60408051631173368b60e01b60208201526001600160a01b039093166024840152604483015280356118098161029b565b6001600160a01b03166064830152602081013561182581610e60565b15156084830152604081013560a48301526060810135601e1982360301811215610296570190602082359201916001600160401b0381116102965780360383136102965781610bee61188b9461188693608060c485015260e484019161188d565b612b05565b565b908060209392818452848401376000828201840152601f01601f1916010190565b156118b557565b60405162461bcd60e51b81526020600482015260136024820152724e6f7420617574686f72697a6564205b50585d60681b6044820152606490fd5b60035490949392919061190b906001600160a01b031661038e565b336001600160a01b03831614908115611a00575b8115611939575b509461193461188b966118ae565b611abd565b60405163cb9ea57160e01b81526001600160a01b039091169691506020816004818a5afa801561044d5761199e976020926000926119e1575b50604051632474521560e21b815260048101929092523360248301529097889190829081906044820190565b03915afa95861561044d5761188b96611934916000916119c2575b50919650611926565b6119db915060203d602011610446576104388183611739565b386119b9565b6119f9919250833d851161047a5761046b8183611739565b9038611972565b6040516352a9c8d760e01b81529091506001600160a01b03821690602081600481855afa801561044d57611a6592602092600092611a9e575b50604051632474521560e21b815260048101929092523360248301529092839190829081906044820190565b03915afa90811561044d57600091611a7f575b509061191f565b611a98915060203d602011610446576104388183611739565b38611a78565b611ab6919250833d851161047a5761046b8183611739565b9038611a39565b928091949293611acb612aa6565b604051631b2e9a0960e01b602082015260248101919091526001600160a01b0390951660448601526080606486015260a485015260c48401929060005b818110611b2f5750505082809261106d92608461188b96015203601f198101835282611739565b9091936040806001928735611b438161029b565b848060a01b03168152602088013560208201520195019101919091611b08565b15611b6a57565b60405162461bcd60e51b815260206004820152601d60248201527f436f6d6d65726365206e6f742077686974656c6973746564205b50585d0000006044820152606490fd5b15611bb657565b60405162461bcd60e51b815260206004820152601960248201527f4e6f2066756e647320746f207769746864726177205b50585d000000000000006044820152606490fd5b600254611c129061038e906001600160a01b031681565b60405163c23f001f60e01b81523360048201526001600160a01b03831660248201529190602090839060449082905afa90811561044d5761188b92600092611cac575b50611c61821515611baf565b60405163f940e38560e01b60208201523360248201526001600160a01b0382166044820152611c9c90611c978160648101610bee565b612c98565b33906001600160a01b0316612d54565b611cc691925060203d60201161047a5761046b8183611739565b9038611c55565b15611cd457565b60405162461bcd60e51b815260206004820152601760248201527f4e6f20746f6b656e732070726f7669646564205b50585d0000000000000000006044820152606490fd5b6040519061188b61018083611739565b6001600160401b03811161175a5760051b60200190565b90611d4a82611d29565b611d576040519182611739565b8281528092611d68601f1991611d29565b0190602036910137565b634e487b7160e01b600052603260045260246000fd5b9190811015611d985760051b0190565b611d72565b3561178f8161029b565b8051821015611d985760209160051b010190565b6000198114611dca5760010190565b634e487b7160e01b600052601160045260246000fd5b9160209082815201919060005b818110611dfa5750505090565b9091926020806001928635611e0e8161029b565b848060a01b031681520194019101919091611ded565b6001600160a01b03909116815260406020820181905261178f93910191611de0565b90611e52811515611ccd565b611e5b81611d40565b6002546000908190611e779061038e906001600160a01b031681565b905b848110611f0e575050611e8d901515611baf565b6040516327b8a39f60e11b6020820152611eb490611c9781610bee86883360248501611e24565b60005b828110611ec45750505050565b80611ed160019284611da7565b51611edd575b01611eb7565b611f09611ef661038e611ef184888a611d88565b611d9d565b611f008386611da7565b51903390612d54565b611ed7565b611f506020611f21611ef184898b611d88565b60405163c23f001f60e01b81523360048201526001600160a01b03909116602482015291829081906044820190565b0381865afa90811561044d57600091611f9c575b50611f6f8286611da7565b52611f7a8185611da7565b51611f88575b600101611e79565b91611f94600191611dbb565b929050611f80565b611fb4915060203d811161047a5761046b8183611739565b38611f64565b60035490929190611fd59061038e906001600160a01b031681565b926040516352a9c8d760e01b8152602081600481885afa801561044d5761202c95602092600092610e035750604051632474521560e21b815260048101929092523360248301529095869190829081906044820190565b03915afa93841561044d5761188b9461204c9160009161041e5750611792565b61188690610bee61188b9493612060612aa6565b60408051639416829f60e01b60208201526001600160a01b03909416602485015260448401529193849260648401919061188d565b1561209c57565b60405162461bcd60e51b815260206004820152600e60248201526d139bdd08185d5d1a1bdc9a5e995960921b6044820152606490fd5b6120da612aa6565b6002546120f19061038e906001600160a01b031681565b604051630b01f01560e01b81526001600160a01b03831660048201529290602090849060249082905afa91821561044d5761188b93600093612180575b5061213a8315156121a1565b604051639c1a381d60e01b60208201526001600160a01b03808316602483015283166044820152612172906118868160648101610bee565b6001600160a01b0316612d54565b61219a91935060203d60201161047a5761046b8183611739565b913861212e565b156121a857565b606460405162461bcd60e51b815260206004820152602060248201527f4e6f2073657276696365206665657320746f207769746864726177205b50585d6044820152fd5b519061188b8261029b565b5190600482101561029657565b90816101809103126102965761016060009161221e611d19565b928151845261222f602083016121ec565b6020850152612240604083016121ec565b6040850152612251606083016121ec565b60608501526080820151608085015261226c60a083016121f7565b60a085015260c082015160c085015260e082015160e085015261010082015161010085015261012082015161012085015261014082015161014085015250015161016082015290565b156122bc57565b60405162461bcd60e51b8152602060048201526011602482015270125b9d9bda58d9481b9bdd08199bdd5b99607a1b6044820152606490fd5b600411156122ff57565b634e487b7160e01b600052602160045260246000fd5b1561231c57565b60405162461bcd60e51b8152602060048201526013602482015272125b9d9bda58d9481a5cc81b9bdd081c185a59606a1b6044820152606490fd5b91612360612aa6565b61236b821515611ccd565b61237482611d40565b9060008061238f61038e61038e60025460018060a01b031690565b905b8581106124215750506123a59015156121a1565b60405163b764c1e560e01b60208201526123cc9061188681610bee85888a602485016124c7565b60005b8381106123dd575050505050565b806123ea60019285611da7565b516123f6575b016123cf565b61241c61240a61038e611ef184898b611d88565b846124158488611da7565b5191612d54565b6123f0565b61245d6020612434611ef1848a8c611d88565b604051630b01f01560e01b81526001600160a01b03909116600482015291829081906024820190565b0381865afa90811561044d576000916124a9575b5061247c8287611da7565b526124878186611da7565b51612495575b600101612391565b916124a1600191611dbb565b92905061248d565b6124c1915060203d811161047a5761046b8183611739565b38612471565b916020916124e091959495604085526040850191611de0565b6001600160a01b03909416910152565b61188b916124fc612aa6565b6040516302f56a2b60e61b60208201526001600160a01b03909216602483015215156044808301919091528152611886606482611739565b1561253b57565b60405162461bcd60e51b8152602060048201526016602482015275496e766f696365206e6f7420666f756e64205b50585d60501b6044820152606490fd5b1561258057565b60405162461bcd60e51b815260206004820152602260248201527f416d6f756e74206d7573742062652067726561746572207468616e2030205b50604482015261585d60f01b6064820152608490fd5b156125d757565b60405162461bcd60e51b8152602060048201526016602482015275496e76616c696420726563697069656e74205b50585d60501b6044820152606490fd5b1561261c57565b60405162461bcd60e51b815260206004820152601960248201527f496e73756666696369656e742062616c616e6365205b50585d000000000000006044820152606490fd5b9161266d821515612579565b6126816001600160a01b03821615156125d0565b6002546126989061038e906001600160a01b031681565b60405163c23f001f60e01b81523360048201526001600160a01b03851660248201529390602090859060449082905afa801561044d57836126e79161188b9660009161272c575b501015612615565b6040516374dd9a8d60e11b60208201523360248201526001600160a01b038083166044830152606482018590528316608482015261217290611c978160a48101610bee565b612745915060203d60201161047a5761046b8183611739565b386126df565b61188b90612757612aa6565b60405163c6960df160e01b60208201526001600160a01b039091166024808301919091528152611886604482611739565b612790612aa6565b6002546127a79061038e906001600160a01b031681565b60405162e26f7960e81b81529290600084600481845afa93841561044d5760009461290c575b506127da845115156129b2565b6127e48451611d40565b9360009260005b825181101561287d5761281360206124346128068487611da7565b516001600160a01b031690565b0381885afa90811561044d5760009161285f575b506128328289611da7565b5261283d8188611da7565b5161284b575b6001016127eb565b93612857600191611dbb565b949050612843565b612877915060203d811161047a5761046b8183611739565b38612827565b50939261288d91925015156121a1565b604051633d80b1d960e01b60208201526001600160a01b03831660248201526128bd906118868160448101610bee565b60005b815181101561290557806128d660019287611da7565b516128e2575b016128c0565b6129006128f561038e6128068487611da7565b85612415848a611da7565b6128dc565b5050509050565b61292891943d8091833e6129208183611739565b81019061292f565b92386127cd565b602081830312610296578051906001600160401b03821161029657019080601f8301121561029657815161296281611d29565b926129706040519485611739565b81845260208085019260051b82010192831161029657602001905b8282106129985750505090565b6020809183516129a78161029b565b81520191019061298b565b156129b957565b60405162461bcd60e51b815260206004820152601a60248201527f4e6f2077686974656c697374656420746f6b656e73205b50585d0000000000006044820152606490fd5b60405162461bcd60e51b815260206004820152601b60248201527f446972656374207061796d656e7473206e6f7420616c6c6f77656400000000006044820152606490fd5b60405162461bcd60e51b8152602060048201526012602482015271119d5b98dd1a5bdb881b9bdd08199bdd5b9960721b6044820152606490fd5b6000546001600160a01b03163303612a9157565b63118cdaa760e01b6000523360045260246000fd5b60ff60005460a01c16612ab557565b63d93c066560e01b60005260046000fd5b3d15612b00573d906001600160401b03821161175a5760405191612af4601f8201601f191660200184611739565b82523d6000602084013e565b606090565b6007546001600160a01b03168015612b7c5781600092918360208194519301915af1612b2f612ac6565b5015612b3757565b60405162461bcd60e51b815260206004820152601b60248201527f54726561737572794d616e616765722063616c6c206661696c656400000000006044820152606490fd5b60405162461bcd60e51b815260206004820152601760248201527f54726561737572794d616e61676572206e6f74207365740000000000000000006044820152606490fd5b6004546001600160a01b03168015612c385781600092918360208194519301915af1612beb612ac6565b5015612bf357565b60405162461bcd60e51b815260206004820152601a60248201527f496e766f6963654d616e616765722063616c6c206661696c65640000000000006044820152606490fd5b60405162461bcd60e51b8152602060048201526016602482015275125b9d9bda58d953585b9859d95c881b9bdd081cd95d60521b6044820152606490fd5b600260015414612c87576002600155565b633ee5aeb560e01b60005260046000fd5b6006546001600160a01b03168015612d0f5781600092918360208194519301915af1612cc2612ac6565b5015612cca57565b60405162461bcd60e51b815260206004820152601d60248201527f5769746864726177616c4d616e616765722063616c6c206661696c65640000006044820152606490fd5b60405162461bcd60e51b815260206004820152601960248201527f5769746864726177616c4d616e61676572206e6f7420736574000000000000006044820152606490fd5b60405163a9059cbb60e01b60208201526001600160a01b03909216602483015260448083019390935291815261188b91612d8f606483611739565b612fda565b600354612da9906001600160a01b031661038e565b906001600160a01b031633148015612e6c575b8015612dcd575b61188b91506118ae565b5060405163cb9ea57160e01b81526001600160a01b039190911690602081600481855afa801561044d57612e3192602092600092611a9e5750604051632474521560e21b815260048101929092523360248301529092839190829081906044820190565b03915afa801561044d5761188b91600091612e4d575b50612dc3565b612e66915060203d602011610446576104388183611739565b38612e47565b506040516352a9c8d760e01b81526001600160a01b03821690602081600481855afa801561044d57612ece92602092600092611a9e5750604051632474521560e21b815260048101929092523360248301529092839190829081906044820190565b03915afa90811561044d57600091612ee7575b50612dbc565b612f00915060203d602011610446576104388183611739565b38612ee1565b6005546001600160a01b03811615612f955760009182916001600160a01b031682602083519301915af1612f38612ac6565b9015612f415750565b805115612f5057805190602001fd5b60405162461bcd60e51b815260206004820152601c60248201527f5061796d656e7450726f636573736f722063616c6c206661696c6564000000006044820152606490fd5b60405162461bcd60e51b815260206004820152601860248201527f5061796d656e7450726f636573736f72206e6f742073657400000000000000006044820152606490fd5b906000602091828151910182855af11561176e576000513d61302c57506001600160a01b0381163b155b61300b5750565b635274afe760e01b60009081526001600160a01b0391909116600452602490fd5b6001141561300456fee5340bb646fa554a3082f7baa2b415eb1874ff7d4c3f118686180386e71f738ea264697066735822122045ae9f7d799bf628930d7595cc085c293b81d1d984ac38963fda8c86b8d8b38064736f6c634300081c0033",
  "linkReferences": {},
  "deployedLinkReferences": {}
}