{
  "_format": "hh-sol-artifact-1",
  "contractName": "InvoiceManager",
  "sourceName": "contracts/modules/InvoiceManager.sol",
  "abi": [
    {
      "inputs": [
        {
          "internalType": "address",
          "name": "_storage",
          "type": "address"
        },
        {
          "internalType": "address",
          "name": "_accessManager",
          "type": "address"
        },
        {
          "internalType": "address",
          "name": "_proxy",
          "type": "address"
        }
      ],
      "stateMutability": "nonpayable",
      "type": "constructor"
    },
    {
      "inputs": [],
      "name": "EnforcedPause",
      "type": "error"
    },
    {
      "inputs": [],
      "name": "ExpectedPause",
      "type": "error"
    },
    {
      "anonymous": false,
      "inputs": [
        {
          "indexed": true,
          "internalType": "bytes32",
          "name": "id",
          "type": "bytes32"
        },
        {
          "indexed": true,
          "internalType": "address",
          "name": "commerce",
          "type": "address"
        }
      ],
      "name": "InvoiceCancelled",
      "type": "event"
    },
    {
      "anonymous": false,
      "inputs": [
        {
          "indexed": true,
          "internalType": "bytes32",
          "name": "id",
          "type": "bytes32"
        },
        {
          "indexed": true,
          "internalType": "address",
          "name": "commerce",
          "type": "address"
        }
      ],
      "name": "InvoiceCreated",
      "type": "event"
    },
    {
      "anonymous": false,
      "inputs": [
        {
          "indexed": false,
          "internalType": "address",
          "name": "account",
          "type": "address"
        }
      ],
      "name": "Paused",
      "type": "event"
    },
    {
      "anonymous": false,
      "inputs": [
        {
          "indexed": false,
          "internalType": "address",
          "name": "account",
          "type": "address"
        }
      ],
      "name": "Unpaused",
      "type": "event"
    },
    {
      "inputs": [],
      "name": "accessManager",
      "outputs": [
        {
          "internalType": "contract IAccessManager",
          "name": "",
          "type": "address"
        }
      ],
      "stateMutability": "view",
      "type": "function"
    },
    {
      "inputs": [
        {
          "internalType": "bytes32",
          "name": "id",
          "type": "bytes32"
        }
      ],
      "name": "cancelInvoice",
      "outputs": [],
      "stateMutability": "nonpayable",
      "type": "function"
    },
    {
      "inputs": [
        {
          "internalType": "bytes32",
          "name": "id",
          "type": "bytes32"
        },
        {
          "internalType": "address",
          "name": "commerce",
          "type": "address"
        },
        {
          "components": [
            {
              "internalType": "address",
              "name": "token",
              "type": "address"
            },
            {
              "internalType": "uint256",
              "name": "amount",
              "type": "uint256"
            }
          ],
          "internalType": "struct IDerampStorage.PaymentOption[]",
          "name": "paymentOptions",
          "type": "tuple[]"
        },
        {
          "internalType": "uint256",
          "name": "expiresAt",
          "type": "uint256"
        }
      ],
      "name": "createInvoice",
      "outputs": [],
      "stateMutability": "nonpayable",
      "type": "function"
    },
    {
      "inputs": [
        {
          "internalType": "address",
          "name": "commerce",
          "type": "address"
        }
      ],
      "name": "getCommerceAllRevenues",
      "outputs": [
        {
          "internalType": "address[]",
          "name": "tokens",
          "type": "address[]"
        },
        {
          "internalType": "uint256[]",
          "name": "totalRevenues",
          "type": "uint256[]"
        },
        {
          "internalType": "uint256[]",
          "name": "netRevenues",
          "type": "uint256[]"
        }
      ],
      "stateMutability": "view",
      "type": "function"
    },
    {
      "inputs": [
        {
          "internalType": "address",
          "name": "commerce",
          "type": "address"
        }
      ],
      "name": "getCommerceInvoiceCount",
      "outputs": [
        {
          "internalType": "uint256",
          "name": "",
          "type": "uint256"
        }
      ],
      "stateMutability": "view",
      "type": "function"
    },
    {
      "inputs": [
        {
          "internalType": "address",
          "name": "commerce",
          "type": "address"
        }
      ],
      "name": "getCommerceInvoices",
      "outputs": [
        {
          "internalType": "bytes32[]",
          "name": "",
          "type": "bytes32[]"
        }
      ],
      "stateMutability": "view",
      "type": "function"
    },
    {
      "inputs": [
        {
          "internalType": "address",
          "name": "commerce",
          "type": "address"
        },
        {
          "internalType": "enum IDerampStorage.Status",
          "name": "status",
          "type": "uint8"
        }
      ],
      "name": "getCommerceInvoicesByStatus",
      "outputs": [
        {
          "internalType": "bytes32[]",
          "name": "",
          "type": "bytes32[]"
        }
      ],
      "stateMutability": "view",
      "type": "function"
    },
    {
      "inputs": [
        {
          "internalType": "address",
          "name": "commerce",
          "type": "address"
        },
        {
          "internalType": "address",
          "name": "token",
          "type": "address"
        }
      ],
      "name": "getCommerceRevenue",
      "outputs": [
        {
          "internalType": "uint256",
          "name": "totalRevenue",
          "type": "uint256"
        },
        {
          "internalType": "uint256",
          "name": "netRevenue",
          "type": "uint256"
        }
      ],
      "stateMutability": "view",
      "type": "function"
    },
    {
      "inputs": [
        {
          "internalType": "address",
          "name": "commerce",
          "type": "address"
        }
      ],
      "name": "getCommerceStats",
      "outputs": [
        {
          "internalType": "uint256",
          "name": "totalInvoices",
          "type": "uint256"
        },
        {
          "internalType": "uint256",
          "name": "pendingInvoices",
          "type": "uint256"
        },
        {
          "internalType": "uint256",
          "name": "paidInvoices",
          "type": "uint256"
        },
        {
          "internalType": "uint256",
          "name": "refundedInvoices",
          "type": "uint256"
        },
        {
          "internalType": "uint256",
          "name": "expiredInvoices",
          "type": "uint256"
        }
      ],
      "stateMutability": "view",
      "type": "function"
    },
    {
      "inputs": [
        {
          "internalType": "address",
          "name": "commerce",
          "type": "address"
        }
      ],
      "name": "getCommerceTokens",
      "outputs": [
        {
          "internalType": "address[]",
          "name": "",
          "type": "address[]"
        }
      ],
      "stateMutability": "view",
      "type": "function"
    },
    {
      "inputs": [
        {
          "internalType": "bytes32",
          "name": "id",
          "type": "bytes32"
        }
      ],
      "name": "getInvoice",
      "outputs": [
        {
          "internalType": "bytes32",
          "name": "invoiceId",
          "type": "bytes32"
        },
        {
          "internalType": "address",
          "name": "payer",
          "type": "address"
        },
        {
          "internalType": "address",
          "name": "commerce",
          "type": "address"
        },
        {
          "internalType": "address",
          "name": "paidToken",
          "type": "address"
        },
        {
          "internalType": "uint256",
          "name": "paidAmount",
          "type": "uint256"
        },
        {
          "internalType": "enum IDerampStorage.Status",
          "name": "status",
          "type": "uint8"
        },
        {
          "internalType": "uint256",
          "name": "createdAt",
          "type": "uint256"
        },
        {
          "internalType": "uint256",
          "name": "expiresAt",
          "type": "uint256"
        },
        {
          "internalType": "uint256",
          "name": "paidAt",
          "type": "uint256"
        },
        {
          "internalType": "uint256",
          "name": "refundedAt",
          "type": "uint256"
        },
        {
          "internalType": "uint256",
          "name": "expiredAt",
          "type": "uint256"
        }
      ],
      "stateMutability": "view",
      "type": "function"
    },
    {
      "inputs": [
        {
          "internalType": "bytes32",
          "name": "id",
          "type": "bytes32"
        }
      ],
      "name": "getInvoicePaymentOptions",
      "outputs": [
        {
          "components": [
            {
              "internalType": "address",
              "name": "token",
              "type": "address"
            },
            {
              "internalType": "uint256",
              "name": "amount",
              "type": "uint256"
            }
          ],
          "internalType": "struct IDerampStorage.PaymentOption[]",
          "name": "",
          "type": "tuple[]"
        }
      ],
      "stateMutability": "view",
      "type": "function"
    },
    {
      "inputs": [
        {
          "internalType": "bytes32[]",
          "name": "invoiceIds",
          "type": "bytes32[]"
        }
      ],
      "name": "getMultipleInvoices",
      "outputs": [
        {
          "internalType": "bytes32[]",
          "name": "ids",
          "type": "bytes32[]"
        },
        {
          "internalType": "address[]",
          "name": "payers",
          "type": "address[]"
        },
        {
          "internalType": "address[]",
          "name": "commerces",
          "type": "address[]"
        },
        {
          "internalType": "address[]",
          "name": "paidTokens",
          "type": "address[]"
        },
        {
          "internalType": "uint256[]",
          "name": "paidAmounts",
          "type": "uint256[]"
        },
        {
          "internalType": "enum IDerampStorage.Status[]",
          "name": "statuses",
          "type": "uint8[]"
        },
        {
          "internalType": "uint256[]",
          "name": "createdAts",
          "type": "uint256[]"
        },
        {
          "internalType": "uint256[]",
          "name": "expiresAts",
          "type": "uint256[]"
        },
        {
          "internalType": "uint256[]",
          "name": "paidAts",
          "type": "uint256[]"
        },
        {
          "internalType": "uint256[]",
          "name": "refundedAts",
          "type": "uint256[]"
        },
        {
          "internalType": "uint256[]",
          "name": "expiredAts",
          "type": "uint256[]"
        }
      ],
      "stateMutability": "view",
      "type": "function"
    },
    {
      "inputs": [
        {
          "internalType": "address",
          "name": "commerce",
          "type": "address"
        },
        {
          "internalType": "uint256",
          "name": "limit",
          "type": "uint256"
        }
      ],
      "name": "getRecentCommerceInvoices",
      "outputs": [
        {
          "internalType": "bytes32[]",
          "name": "",
          "type": "bytes32[]"
        }
      ],
      "stateMutability": "view",
      "type": "function"
    },
    {
      "inputs": [
        {
          "internalType": "bytes32",
          "name": "id",
          "type": "bytes32"
        }
      ],
      "name": "invoiceExists",
      "outputs": [
        {
          "internalType": "bool",
          "name": "",
          "type": "bool"
        }
      ],
      "stateMutability": "view",
      "type": "function"
    },
    {
      "inputs": [
        {
          "internalType": "bytes32",
          "name": "id",
          "type": "bytes32"
        },
        {
          "internalType": "address",
          "name": "commerce",
          "type": "address"
        }
      ],
      "name": "isInvoiceCommerce",
      "outputs": [
        {
          "internalType": "bool",
          "name": "",
          "type": "bool"
        }
      ],
      "stateMutability": "view",
      "type": "function"
    },
    {
      "inputs": [],
      "name": "paused",
      "outputs": [
        {
          "internalType": "bool",
          "name": "",
          "type": "bool"
        }
      ],
      "stateMutability": "view",
      "type": "function"
    },
    {
      "inputs": [],
      "name": "proxy",
      "outputs": [
        {
          "internalType": "address",
          "name": "",
          "type": "address"
        }
      ],
      "stateMutability": "view",
      "type": "function"
    },
    {
      "inputs": [],
      "name": "storageContract",
      "outputs": [
        {
          "internalType": "contract IDerampStorage",
          "name": "",
          "type": "address"
        }
      ],
      "stateMutability": "view",
      "type": "function"
    }
  ],
  "bytecode": "0x60e03461011757601f61252538819003918201601f19168301916001600160401b0383118484101761011c578084926060946040528339810103126101175761004781610132565b90610060604061005960208401610132565b9201610132565b6001600160a01b03928316608052911660a05260c0526040516123de908161014782396080518181816103ec015281816104910152818161056a015281816106dc015281816109f001528181610c7f01528181610e320152818161105a015281816111600152818161134b0152818161155501528181611b7b01528181611da601528181611e1f01526122c8015260a05181818161010701526115c4015260c05181818161014f0152818161069801526115110152f35b600080fd5b634e487b7160e01b600052604160045260246000fd5b51906001600160a01b03821682036101175756fe608080604052600436101561001357600080fd5b600090813560e01c90816311ce026714611e0b575080631709078b14611d765780631840dc9014611b365780631b2e9a09146114a75780632cc369851461130457806345636c1c1461111e57806359428174146110e15780635c975abb146110bf5780635ce5ffe8146110175780635da5eaf314610df85780639c3bbd3014610c515780639e4c1535146108a2578063c0aa7e2e1461067d578063cb802c8b1461053a578063d12697d414610458578063df93e76c146103a9578063e8c8177b1461017e578063ec556889146101395763fdcb6068146100f257600080fd5b346101365780600319360112610136576040517f00000000000000000000000000000000000000000000000000000000000000006001600160a01b03168152602090f35b80fd5b50346101365780600319360112610136576040517f00000000000000000000000000000000000000000000000000000000000000006001600160a01b03168152602090f35b503461013657602036600319011261013657610198611e4e565b604051635da5eaf360e01b81526001600160a01b038216600482015290918082602481305afa91821561039c5781926102f9575b506101d7825161225d565b926101e2835161225d565b90825b84518110156102b95761023b9060406001600160a01b0361020683896120d2565b5182516301840dc960e41b81526001600160a01b03878116600483015292909116909116602482015292839081906044820190565b0381305afa80156102ae578590869061026f575b6001935061025d83876120d2565b5261026882896120d2565b52016101e5565b5050906040813d82116102a6575b8161028a60409383611f46565b810103126102a257908160206001935191015161024f565b8480fd5b3d915061027d565b6040513d87823e3d90fd5b6102d9856102f5856102e78a604051958695606087526060870190611eb3565b908582036020870152611e7f565b908382036040850152611e7f565b0390f35b9091503d8083833e61030b8183611f46565b8101906020818303126103945780519067ffffffffffffffff821161039857019080601f8301121561039457815161034281612031565b926103506040519485611f46565b81845260208085019260051b8201019283116102a257602001905b82821061037c5750505090386101cc565b6020809161038984611f68565b81520191019061036b565b8280fd5b8380fd5b50604051903d90823e3d90fd5b5034610136576020366003190112610136576103c3611e4e565b604051630b9cbffd60e31b81526001600160a01b039182166004820152908290829060249082907f0000000000000000000000000000000000000000000000000000000000000000165afa90811561044d57826020939261042a575b505051604051908152f35b61044692503d8091833e61043e8183611f46565b810190612049565b388061041f565b6040513d84823e3d90fd5b503461013657604036600319011261013657610472611e69565b60405163cb802c8b60e01b8152600480359082015290610180826024817f00000000000000000000000000000000000000000000000000000000000000006001600160a01b03165afa91821561052f57602093926104fe575b508151151591826104e3575b50506040519015158152f35b604001516001600160a01b03918216911614905038806104d7565b6105219192506101803d8111610528575b6105198183611f46565b810190611f7c565b90386104cb565b503d61050f565b6040513d85823e3d90fd5b50346101365760203660031901126101365760405163cb802c8b60e01b81526004803590820152610180816024817f00000000000000000000000000000000000000000000000000000000000000006001600160a01b03165afa90811561044d57829161065e575b508051602082015160408301516060840151608085015160a08601519694956001600160a01b039485169590949384169390921691600488101561064a575061062c6101609760c08601519260e087015194610100880151966101406101208a0151990151996040519b8c5260208c015260408b015260608a0152608089015260a0880190611ef0565b60c086015260e0850152610100840152610120830152610140820152f35b634e487b7160e01b81526021600452602490fd5b61067791506101803d8111610528576105198183611f46565b386105a2565b5034610136576020366003190112610136576004356106c6337f00000000000000000000000000000000000000000000000000000000000000006001600160a01b03161461212c565b60405163cb802c8b60e01b8152600481018290527f00000000000000000000000000000000000000000000000000000000000000006001600160a01b031661018082602481845afa918215610897578492610876575b508151156108385760a082019081516004811015610824576107cb57600385925242610140840152803b156107c7578160405180926365dccde560e01b825281838161076c898b600484016121b4565b03925af1801561044d576107b2575b5050604001516001600160a01b0316907f881d07924d83735d00c06370239f77e65622c5033b00ccd03a9358be68de819d8380a380f35b816107bc91611f46565b61039457823861077b565b5080fd5b60405162461bcd60e51b815260206004820152602b60248201527f4f6e6c792070656e64696e6720696e766f696365732063616e2062652063616e60448201526a63656c6c6564205b494d5d60a81b6064820152608490fd5b634e487b7160e01b86526021600452602486fd5b60405162461bcd60e51b8152602060048201526016602482015275496e766f696365206e6f7420666f756e64205b494d5d60501b6044820152606490fd5b6108909192506101803d8111610528576105198183611f46565b903861071c565b6040513d86823e3d90fd5b5034610136576020366003190112610136576004359067ffffffffffffffff821161013657366023830112156101365767ffffffffffffffff82600401351161013657366024836004013560051b8401011161013657610905826004013561225d565b90610913836004013561225d565b90610921846004013561225d565b9061092f856004013561225d565b9061093d866004013561225d565b9061094b8760040135612031565b906109596040519283611f46565b600488013580835261096a90612031565b601f1901366020840137610981886004013561225d565b9161098f896004013561225d565b9361099d8a6004013561225d565b956109ab8b6004013561225d565b976109b98c6004013561225d565b99855b8d60040135811015610b515760405163cb802c8b60e01b8152600582901b8f016024908101356004830152610180908290817f00000000000000000000000000000000000000000000000000000000000000006001600160a01b03165afa908115610b46578891610b27575b508d610a36838351926120d2565b5260208101516001600160a01b0316610a4f83856120d2565b5260408101516001600160a01b0316610a6883866120d2565b5260608101516001600160a01b0316610a8183876120d2565b526080810151610a9183886120d2565b5260a08101516004811015610b1357610b0c838f928f948f958f968f9785988f95610ac160019c610140986120d2565b52610ad18760c0870151926120d2565b52610ae18660e0860151926120d2565b52610af285610100850151926120d2565b52610b0384610120840151926120d2565b520151926120d2565b52016109bc565b634e487b7160e01b89526021600452602489fd5b610b4091506101803d8111610528576105198183611f46565b38610a28565b6040513d8a823e3d90fd5b50909192939b506040519a6101608c526101608c01610b6f91611e7f565b8b810360208d0152610b8091611eb3565b8a810360408c0152610b9191611eb3565b89810360608b0152610ba291611eb3565b88810360808a0152610bb391611e7f565b87810360a089015288519081815260200198602001915b818110610c3257505050610c2392610c056102f5969593610bf78a610c14958b809d0360c08d0152611e7f565b9089820360e08b0152611e7f565b90878203610100890152611e7f565b90858203610120870152611e7f565b90838203610140850152611e7f565b90919860208082610c466001948e51611ef0565b019a01929101610bca565b5034610136576020366003190112610136576040516309c3bbd360e41b8152600480359082015281816024817f00000000000000000000000000000000000000000000000000000000000000006001600160a01b03165afa90811561044d578291610d12575b5090604051918291602083016020845282518091526020604085019301915b818110610ce4575050500390f35b825180516001600160a01b031685526020908101518186015286955060409094019390920191600101610cd6565b90503d8083833e610d238183611f46565b8101906020818303126103945780519067ffffffffffffffff8211610398570181601f8201121561039457805190610d5a82612031565b92610d686040519485611f46565b82845260208085019360061b83010191818311610df457602001925b828410610d95575050505038610cb7565b604084830312610df4576040516040810181811067ffffffffffffffff821117610de057916020916040938452610dcb87611f68565b81528287015183820152815201930192610d84565b634e487b7160e01b88526041600452602488fd5b8580fd5b503461013657602036600319011261013657610e12611e4e565b604051630b9cbffd60e31b81526001600160a01b039182166004820152907f0000000000000000000000000000000000000000000000000000000000000000168282602481845afa91821561052f578392610ffb575b50610e73825161225d565b8390845b8451811015610fa857610e8a81866120d2565b516040519063cb802c8b60e01b8252600482015261018081602481885afa908115610f9d578791610f7e575b5060a08101516004811015610f6a5760011480610f54575b610edc575b50600101610e77565b86875b858110610f1a575b50610ed357606001519092600191610f1391906001600160a01b0316610f0d82866120d2565b5261228f565b9290610ed3565b6001600160a01b03610f2c82876120d2565b5160608501516001600160a01b0316911614610f4a57600101610edf565b5050600138610ee7565b5060608101516001600160a01b03161515610ece565b634e487b7160e01b88526021600452602488fd5b610f9791506101803d8111610528576105198183611f46565b38610eb6565b6040513d89823e3d90fd5b858383610fb48261225d565b925b828110610fd357604051602080825281906102f590820187611eb3565b6001906001600160a01b03610fe882856120d2565b5116610ff482876120d2565b5201610fb6565b6110109192503d8085833e61043e8183611f46565b9038610e68565b503461013657602036600319011261013657611031611e4e565b604051630b9cbffd60e31b81526001600160a01b039182166004820152908290829060249082907f0000000000000000000000000000000000000000000000000000000000000000165afa90811561044d57826102f593926110a4575b5050604051918291602083526020830190611e7f565b6110b892503d8091833e61043e8183611f46565b388061108e565b503461013657806003193601126101365760ff60209154166040519015158152f35b5034610136576040366003190112610136576102f561110a611101611e4e565b6024359061229e565b604051918291602083526020830190611e7f565b503461013657602036600319011261013657611138611e4e565b604051630b9cbffd60e31b81526001600160a01b0391821660048201529082908190819081907f0000000000000000000000000000000000000000000000000000000000000000168186602481845afa95861561052f5783966112e8575b5085519583975b81518910156112c5576111b089836120d2565b516040519063cb802c8b60e01b8252600482015261018081602481875afa9081156112ba579060a091879161129b575b5001805160048110156112875761120657506111fd60019161228f565b985b019761119d565b80999791995160048110156112875760010361122e575061122860019161228f565b966111ff565b809796919751600481101561128757600203611256575061125060019161228f565b956111ff565b95909551600481101561082457600314611273575b6001906111ff565b9261127f60019161228f565b93905061126b565b634e487b7160e01b87526021600452602487fd5b6112b491506101803d8111610528576105198183611f46565b386111e0565b6040513d88823e3d90fd5b8784878960a0946040519485526020850152604084015260608301526080820152f35b6112fd9196503d8085833e61043e8183611f46565b9438611196565b50346101365760403660031901126101365761131e611e4e565b6024356004811015908161039857604051630b9cbffd60e31b81526001600160a01b0393841660048201527f0000000000000000000000000000000000000000000000000000000000000000909316928481602481875afa9081156102ae57859161148d575b5061138f815161225d565b918593865b8351811015611443576113a781856120d2565b516040519063cb802c8b60e01b82526004820152610180816024818b5afa80156114385760a0918a91611419575b5001516004811015610b135782610b135783146113f5575b600101611394565b9461141160019161140688876120d2565b51610f0d82896120d2565b9590506113ed565b61143291506101803d8111610528576105198183611f46565b386113d5565b6040513d8b823e3d90fd5b87868661144f8261225d565b925b82811061146e57604051602080825281906102f590820187611e7f565b8061147b600192846120d2565b5161148682876120d2565b5201611451565b6114a191503d8087833e61043e8183611f46565b38611384565b5034610136576080366003190112610136576004356114c4611e69565b9060443567ffffffffffffffff811161039857366023820112156103985780600401359067ffffffffffffffff82116102a2576024810190602436918460061b0101116102a25761153f337f00000000000000000000000000000000000000000000000000000000000000006001600160a01b03161461212c565b60405163cb802c8b60e01b8152600481018490527f00000000000000000000000000000000000000000000000000000000000000006001600160a01b0316929061018081602481875afa908115610f9d578791611b17575b5051611ad2576001600160a01b038516948515611a9557604051633111469760e01b8152600481018790527f00000000000000000000000000000000000000000000000000000000000000006001600160a01b03169190602081602481865afa908115611438578991611a76575b5015611a315782156119da57875b8381106117ce5750505060405161162981611f13565b8481528660208201528560408201528660608201528660808201528660a08201524260c082015260643560e08201528661010082015286610120820152866101408201528661016082015286843b15610136576040516365dccde560e01b8152918290819061169c9089600484016121b4565b038183885af18015610f9d576117b6575b5090859291835b81811061173157505050803b156107c75781809160446040518094819363c0b6260f60e01b83528960048401528860248401525af1801561044d5761171c575b50807fea5d90c3420f14f1d36c016023d7cd48c3630fc672dd23149604f16011fa56c291a380f35b8161172691611f46565b6103945782386116f4565b61173c818385612190565b843b15610df457604051637968e6e160e11b8152600481018890529080356001600160a01b03811691908290036117b257602091602484015201356044820152858160648183895af19081156112ba57869161179d575b50506001016116b4565b816117a791611f46565b6102a2578438611793565b8780fd5b866117c5919792949397611f46565b949091386116ad565b6117e16117dc828688612190565b6121a0565b60405163b5af090f60e01b81526001600160a01b039091166004820152602081602481875afa90811561196c578a916119bc575b50156119775761185f602061182e6117dc84888a612190565b60405163bd4ec44d60e01b81526001600160a01b038087166004830152909116602482015291829081906044820190565b03818a5afa90811561196c578a9161193e575b50156118e4576020611885828688612190565b01351561189457600101611613565b60405162461bcd60e51b815260206004820152602260248201527f416d6f756e74206d7573742062652067726561746572207468616e2030205b496044820152614d5d60f01b6064820152608490fd5b60405162461bcd60e51b815260206004820152602c60248201527f546f6b656e206e6f742077686974656c697374656420666f722074686973206360448201526b6f6d6d65726365205b494d5d60a01b6064820152608490fd5b61195f915060203d8111611965575b6119578183611f46565b810190612178565b38611872565b503d61194d565b6040513d8c823e3d90fd5b60405162461bcd60e51b815260206004820152601a60248201527f546f6b656e206e6f742077686974656c6973746564205b494d5d0000000000006044820152606490fd5b6119d4915060203d8111611965576119578183611f46565b38611815565b60405162461bcd60e51b815260206004820152602960248201527f4174206c65617374206f6e65207061796d656e74206f7074696f6e207265717560448201526869726564205b494d5d60b81b6064820152608490fd5b60405162461bcd60e51b815260206004820152601d60248201527f436f6d6d65726365206e6f742077686974656c6973746564205b494d5d0000006044820152606490fd5b611a8f915060203d602011611965576119578183611f46565b38611605565b60405162461bcd60e51b8152602060048201526015602482015274496e76616c696420636f6d6d65726365205b494d5d60581b6044820152606490fd5b60405162461bcd60e51b815260206004820152601b60248201527f496e766f69636520616c726561647920657869737473205b494d5d00000000006044820152606490fd5b611b3091506101803d8111610528576105198183611f46565b38611597565b503461013657604036600319011261013657611b50611e4e565b611b58611e69565b604051630b9cbffd60e31b81526001600160a01b039283166004820181905290927f0000000000000000000000000000000000000000000000000000000000000000169184918291908286602481885afa958615610f9d578796611d5a575b506040519063283f05e960e21b82526004820152602081602481885afa908115610f9d578791611d24575b5015611cce575b855b8551811015611cbe57611bfe81876120d2565b516040519063cb802c8b60e01b8252600482015261018081602481895afa908115610b46578891611c9f575b5060a08101516004811015610b135760011480611c86575b611c50575b50600101611beb565b60019194611c7982610160611c6e6080611c7f9601988951906120fc565b97519101519061211f565b906120fc565b9390611c47565b5060608101516001600160a01b03848116911614611c42565b611cb891506101803d8111610528576105198183611f46565b38611c2a565b6040838582519182526020820152f35b6040516339e49b5760e21b8152602081600481885afa8015610f9d57611cf5575b50611be9565b611d169060203d602011611d1d575b611d0e8183611f46565b8101906120c3565b5038611cef565b503d611d04565b90506020813d602011611d52575b81611d3f60209383611f46565b81010312611d4e575138611be2565b8680fd5b3d9150611d32565b611d6f9196503d8089833e61043e8183611f46565b9438611bb7565b50346101365760203660031901126101365760405163cb802c8b60e01b81526004803590820152610180816024817f00000000000000000000000000000000000000000000000000000000000000006001600160a01b03165afa90811561044d5760209291611dec575b50511515604051908152f35b611e0591506101803d8111610528576105198183611f46565b38611de0565b9050346107c757816003193601126107c7577f00000000000000000000000000000000000000000000000000000000000000006001600160a01b03168152602090f35b600435906001600160a01b0382168203611e6457565b600080fd5b602435906001600160a01b0382168203611e6457565b906020808351928381520192019060005b818110611e9d5750505090565b8251845260209384019390920191600101611e90565b906020808351928381520192019060005b818110611ed15750505090565b82516001600160a01b0316845260209384019390920191600101611ec4565b906004821015611efd5752565b634e487b7160e01b600052602160045260246000fd5b610180810190811067ffffffffffffffff821117611f3057604052565b634e487b7160e01b600052604160045260246000fd5b90601f8019910116810190811067ffffffffffffffff821117611f3057604052565b51906001600160a01b0382168203611e6457565b9081610180910312611e645760405190611f9582611f13565b80518252611fa560208201611f68565b6020830152611fb660408201611f68565b6040830152611fc760608201611f68565b60608301526080810151608083015260a0810151906004821015611e64576101609160a084015260c081015160c084015260e081015160e0840152610100810151610100840152610120810151610120840152610140810151610140840152015161016082015290565b67ffffffffffffffff8111611f305760051b60200190565b602081830312611e645780519067ffffffffffffffff8211611e6457019080601f83011215611e6457815161207d81612031565b9261208b6040519485611f46565b81845260208085019260051b820101928311611e6457602001905b8282106120b35750505090565b81518152602091820191016120a6565b90816020910312611e64575190565b80518210156120e65760209160051b010190565b634e487b7160e01b600052603260045260246000fd5b9190820180921161210957565b634e487b7160e01b600052601160045260246000fd5b9190820391821161210957565b1561213357565b60405162461bcd60e51b815260206004820152601860248201527f4f6e6c792070726f78792063616e2063616c6c205b494d5d00000000000000006044820152606490fd5b90816020910312611e6457518015158103611e645790565b91908110156120e65760061b0190565b356001600160a01b0381168103611e645790565b909291610160610180916101a084019584528051602085015260018060a01b03602082015116604085015260018060a01b03604082015116606085015260018060a01b036060820151166080850152608081015160a085015261221f60a082015160c0860190611ef0565b60c081015160e085015260e0810151610100850152610100810151610120850152610120810151610140850152610140810151828501520151910152565b9061226782612031565b6122746040519182611f46565b8281528092612285601f1991612031565b0190602036910137565b60001981146121095760010190565b604051630b9cbffd60e31b81526001600160a01b03918216600482015290600090829060249082907f0000000000000000000000000000000000000000000000000000000000000000165afa90811561239c57600091612381575b508051918215612364578281111561235f5750815b6123178161225d565b92600019810190811160005b83811061233257505050505090565b81612109578061234d6123476001938661211f565b876120d2565b5161235882896120d2565b5201612323565b61230e565b505050604051612375602082611f46565b60008152600036813790565b61239691503d806000833e61043e8183611f46565b386122f9565b6040513d6000823e3d90fdfea26469706673582212203cfdd2538da1b02c98906f0ad14b30d6bae159f1a5ffbc52d60cb39c4b43cfe364736f6c634300081c0033",
  "linkReferences": {},
  "deployedLinkReferences": {}
}